:020000040800F2
:10000000E88A00209D010008A52E00089122000822
:10001000ED2D0008E9020008153B00080000000073
:10002000000000000000000000000000052F000894
:100030004D04000800000000A72E0008C930000889
:10004000B7010008B7010008B7010008B7010008B0
:10005000B7010008B7010008B7010008B7010008A0
:10006000B7010008B70100084F040008B7010008F5
:10007000B7010008B7010008B7010008B701000880
:10008000B7010008B7010008B7010008B701000870
:10009000B7010008B7010008B7010008B701000860
:1000A000B7010008793100086D310008B701000878
:1000B000B701000885310008B7010008B701000842
:1000C000B7010008B7010008B7010008B701000830
:1000D000B7010008B7010008B7010008B701000820
:1000E000B7010008B7010008B7010008B701000810
:1000F000B7010008B7010008B7010008B701000800
:10010000B7010008B7010008B7010008B7010008EF
:10011000B7010008B7010008B7010008B7010008DF
:10012000B7010008B7010008B9030008B7010008CB
:10013000B7010008B7010008B7010008B7010008BF
:10014000B7010008B7010008B7010008B7010008AF
:10015000B7010008B7010008C5030008B70100088F
:10016000B7010008B7010008B7010008B70100088F
:10017000B7010008B7010008B7010008000000003F
:10018000B7010008B7010008DFF80CD000F09AF8BA
:10019000004800478D420008E88A00200648804752
:1001A00006480047FEE7FEE7FEE7FEE7FEE7FEE75C
:1001B000FEE7FEE7FEE7FEE751310008890100088F
:1001C0002DE9F05F0546002092469B46884606468C
:1001D000814640241BE0284641464746224600F01F
:1001E00061F853465A46C01A914110D31146184639
:1001F000224600F048F82D1A67EB01084F462246C8
:100200000120002100F03FF817EB00094E41201EAD
:10021000A4F10104DFDC484631462A464346BDE8E6
:10022000F09FD2B201E000F8012B491EFBD27047CB
:100230000022F6E710B513460A4604461946FFF7B2
:10024000F0FF204610BDCAB2401E10F8011F8A42BE
:1002500002D00029F9D10020704730B50B46014685
:1002600000202022012409E021FA02F59D4205D355
:1002700003FA02F5491B04FA02F52844151EA2F1FF
:100280000102F1DC30BD202A04DB203A00FA02F141
:10029000002070479140C2F1200320FA03F3194374
:1002A00090407047202A04DB203A21FA02F0002116
:1002B000704721FA02F3D040C2F120029140084376
:1002C00019467047064C074D06E0E06840F0010310
:1002D00094E8070098471034AC42F6D3FFF758FF74
:1002E0009CDF0008BCDF0008FEE7000038B51349BA
:1002F000044647F6FF70124A0880002111800090E2
:100300004623D722C021182002F0D0F905204CB195
:10031000012C0AD0022C10D10AA300903022E22135
:100320003C2008E009A30090F8E70720009009A30B
:100330003022E221242002F0F7FA38BD46000020E6
:10034000480000204552524F520000005354415281
:100350005400000052554E4E494E470070B50546B8
:100360005FF0000404EBC4004119204603F015FEC1
:10037000641CE4B2062CF5D370BD000010B5044631
:100380000C4900200854401CC0B20628FAD30AE0E9
:10039000641C02F0DFFD20B914F8010B02F014FE1A
:1003A00008B1012010BD20780028F1D101F072FFC2
:1003B000002010BD5C000020014800F0EDB90000F5
:1003C00024040020014800F0E7B900008404002064
:1003D00001681823CAB2103AB2FBF3F2054B6FF36F
:1003E0000901032A9B5CC36500D9091D8165084684
:1003F0007047000010DF000810B5014600208B692F
:100400008A6A4FF0C07453B1B3F5005F15D072B172
:10041000012A0CD0022A0AD0032A09D104E01AB119
:10042000012A06D0022A03D1C96AC90100D50120D8
:1004300010BDC96AA142FAD010BD002AF7D0012A26
:10044000F2D0022AF3D0032AF3D010BD7047102057
:1004500000F044BB7047000070B5B3F5804F05D085
:100460006FF0704140F82210002070BD50F822401B
:10047000084B8E891C40D1E9003543EA05138D688D
:1004800089692D0245EA06452B430B43234340F877
:100490002230E9E70000F0CFF0B50C6850F82430C6
:1004A000114A1340D1E90125D1E903672A433E43AC
:1004B00032434E6932438E693243CE6932430E6A0B
:1004C00032434E6A32438E6A3243CE6A3243CE6B37
:1004D000096B32430A431A43082D01D142F040020E
:1004E00040F824200020F0BD8000F0FF30B500EB84
:1004F000820250688D8900F04043D1E9000440EA4F
:1005000004108C68240244EA054420430C8A074DF9
:1005100005EB045420430C7D6D0105EB04648969EF
:100520002043084318435060002030BD0000F0FF16
:1005300004480068406B6E2801D0012070470020FD
:1005400070470000E402002070B50C46054604F038
:10055000B1F808B1012070BD297C8C488CA2415CA7
:10056000515C04F81B1B697889A2415C515C04F85A
:100570001A1CA97B86A2415C515C04F8181C95F8F2
:10058000251083A2415C515C04F8171CA97A80A253
:10059000415C515C04F8151C95F82E107CA2415C5E
:1005A000515C04F8141C297B79A2415C515C04F86D
:1005B000121C297F76A2415C515C04F8111CE97C75
:1005C00073A2415C515C04F80F1CE97970A2415C94
:1005D000515C04F80E1CE97D6DA2415C515C04F88D
:1005E0000C1C95F82B106AA2415C515C04F80B1CA2
:1005F000697E67A2415C515C04F8091C95F83410CF
:1006000063A2415C515C04F8081C697D60A2415CF6
:10061000515C04F8061C95F822105DA2415C515C07
:1006200004F8051C69795AA2415C515C04F8031C6A
:1006300095F8271056A2415C515C04F8021CE97839
:1006400053A2415C515C217095F8201050A2415C8E
:10065000515C617095F830104DA2415C515CE170C5
:1006600095F829104AA2415C515C217195F832102D
:1006700047A2415C515CA171A97F45A2415C515CDC
:10068000E171697C42A2415C515C6172A97840A22F
:10069000415C515CA17295F824103DA2415C515C13
:1006A000E172E97A3AA2415C515C217395F8261017
:1006B00037A2415C515C617395F82D1034A2415C06
:1006C000515CA173697A32A2415C515CE17395F887
:1006D0002F102FA2415C515C2174E97E2CA2415C59
:1006E000515C6174E97B2AA2415C515CA174697F11
:1006F00027A2415C515CE174297825A2415C515CE0
:100700002175297D22A2415C515C617595F82A1002
:100710001FA2415C515CA175297A1DA2415C515C0C
:10072000E175A97C1AA2415C515C2176A97918A2D5
:10073000415C515C617695F8231015A2415C515CD7
:10074000A176297E12A2415C515CE17695F82110D8
:100750000FA2415C515C217795F835100CA2415CE9
:10076000515C6177A97E0AA2415C515CA17795F842
:10077000331007A2415C515CE17795F82C10405C86
:1007800003A1085C84F82000002070BD0400002054
:100790004655444C524200002DE9F84304464FF0C0
:1007A0000009CDF8009063484FF41651A56D00681C
:1007B000B0FBF1F72E6894F85C10082000FA01F104
:1007C00031420FD021680A6852070BD50A6822F01F
:1007D00004020A6094F85C108840A860606D40F0E4
:1007E0000100606594F85C104FF0010808FA01F010
:1007F000304208D021684969090604D5A860606DB7
:1008000040F00200606594F85C100420884030429B
:1008100008D021680968890704D5A860606D40F098
:100820000400606594F85C1010208840304218D0B5
:1008300021680968090714D5A86020680168490380
:1008400004D50068000308D5A16C07E00168C9055C
:1008500003D4016821F008010160216C09B1204630
:10086000884794F85C1020208840304231D02168BD
:100870000968C9062DD5A86094F8350005282068B8
:10088000016806D0490347D5006800031DD4616C98
:100890001CE021F0160101602068416921F080010F
:1008A0004161206C08B9A06C20B12068016821F07A
:1008B0000801016094F85C103F208840A86084F82B
:1008C000349084F83580216D1FE0E16B09B120463A
:1008D0008847606D00282BD0606DC00714D00520BC
:1008E00084F835002068016821F00101016000985A
:1008F000401C0090B84203D820680068C007F6D1B9
:1009000084F8349084F83580E16C002910D001B06F
:100910002046BDE8F04308470168C905D5D4016801
:1009200021F01001016084F8349084F83580CCE720
:10093000BDE8F883B00000202DE9F041044600F046
:10094000C7F906465CB1002584F83450022084F8CB
:1009500035002068016821F0010101600DE00120EF
:10096000BDE8F08100F0B4F9801B052805D92020EE
:100970006065032084F83500F2E720680068C0074E
:10098000F0D12268116820480140D4E901031843DE
:10099000D4E903363343184363691843A369184302
:1009A000E3691843236A18430843616A042903D1A1
:1009B000D4E90B1319430843106020684069666A44
:1009C00020F0070130460E43012704280CD1A06A0D
:1009D0000643E06A40B12046FFF70EFD20B14020FB
:1009E000606584F83570BAE7206846612046FFF7F5
:1009F000EFFC94F85C203F2191408160656584F8AC
:100A000035700020ACE700003F8010F070B5044660
:100A100000F05EF90546601C02D0044800780444EA
:100A200000F056F9401BA042FAD370BDA40000208C
:100A30002DE9F04186B014216846FFF7F9FB204804
:100A40000168002939D1012101601E480024016894
:100A500041F00101016000684FF4805800F001008E
:100A60000C27CDF80080CDE90470032602250396FB
:100A7000CDE901546946144800F03CF84FF6807007
:100A8000CDE9000502AA694682E8D0000F4800F0CF
:100A900031F84CF23370CDE9000502AA694682E8CC
:100AA000D0000B4800F026F802AA694682E8D00080
:100AB000CDE90085074800F01DF806B0BDE8F081DB
:100AC0009800002038380240001402400010024014
:100AD000000C02400018024070470000044910B5A5
:100AE0000A68024202D00860FFF7F6FF10BD00005E
:100AF000143C01402DE9F84F00224FF00108032576
:100B00004FF00F0E0B6808FA02F42340A3426ED197
:100B10004E68012E05D0022E03D0112E01D0122EC8
:100B200012D186684FEA420C05FA0CF7BE43CF6833
:100B300007FA0CF7374387604668A6430C79C4F37D
:100B40000014944034434460C668570005FA07FC1B
:100B50008C6826EA0C06BC403443C4604C68022C06
:100B600001D0122C13D1D40800EB8404A346D4F88E
:100B7000209054074FEAD46A0EFA0AF629EA0609C9
:100B80000E6906FA0AF646EA0906CBF820600668FE
:100B90000C7926EA0C0604F00304BC4034430460DC
:100BA0004C68E40065D5364C266846F480462660DD
:100BB000246822F0030604F480440094314C344449
:100BC000A446D4F808489607370F0EFA07F6B44340
:100BD0002D4EB04201D1002624E02C4EB04201D16E
:100BE00001261FE02A4EB04202D102261AE040E060
:100BF000284EB04201D1032614E0274EB04201D165
:100C000004260FE0254EB04201D105260AE0244E0D
:100C1000B04201D1062605E0224EB04201D107269E
:100C200000E00826BE402643CCF808681E4E346813
:100C30004F689C43FF0300D51C4334601A4C241DAD
:100C400026684F689E43BF0300D51E432660164E9C
:100C5000083634684F689C43FF0200D51C4334605B
:100C6000114E0C3634684F689C43BF0200D51C43BC
:100C70003460521C102AFFF445AFBDE8F88F000025
:100C800044380240003001400000024000040240AD
:100C900000080240000C0240001002400014024014
:100CA00000180240001C0240003C0140006908405E
:100CB00000D001207047426931EA020200D10904E4
:100CC000816170470AB1816170470904FBE7000048
:100CD0000148806870470000A400002070B504003F
:100CE00025D094F83D00002520B984F83C502046DA
:100CF00000F04CFA242084F83D002068016821F0BF
:100D0000010101602068016841F400410160206830
:100D1000016821F40041016000F0B6FB4D4A6168B2
:100D2000914201D84C4900E04C49884201D201204F
:100D300070BD4B492368B0FBF1F15E6826F03F06B9
:100D40000E435E606368934206D94FF4967359432D
:100D50004FF47A73B1FBF3F12368491C1E6A26F045
:100D60003F06314319626168914210D84900401E24
:100D7000B0FBF1F2521CC2F30B02042A01D2042090
:100D800022E0B0FBF1F0401CC0F30B001CE0A268B5
:100D9000F2B301EBC10303EB0116431EB3FBF6F301
:100DA0005B1C43F480431B0549D092B301EBC102A5
:100DB00002EB0111401EB0FBF1F0401CC0F30B0030
:100DC00040F4804040F400402168CA694CF6FF734B
:100DD0009A431043C861D4E90710014320680268B0
:100DE00022F0C00211430160D4E9030101432068ED
:100DF000826848F2FF339A4311438160D4E90501C8
:100E000008432168CA6822F0FF021043C86001E06D
:100E10000EE016E02068016841F0010101602564E0
:100E2000202084F83D00256384F83E50002070BDEA
:100E300001EB4106431EB3FBF6F35B1CB3E7012055
:100E4000C2E701EB4101401EB0FBF1F0401CC0F3D2
:100E50000B00B7E7A086010080841E0000093D005A
:100E600040420F002DE9FF4F83B09A46DDE911970C
:100E700093460446DDF84080FFF72AFF054694F8C4
:100E80003D00202870D11923012271492046009588
:100E900001F02AFB0028F5D194F83C00012863D02A
:100EA000012084F83C0020680168C90703D101686B
:100EB00041F0010101602068016821F400610160D6
:100EC000222084F83D00402084F83E00002626645D
:100ED000C4F82480A4F82A90608D20855D48E062E3
:100EE000CDE9007553465A462046049901F004FAAC
:100EF00000287CD1208DD0B1012821D00228206883
:100F000024D0416980690090208D032869D8012888
:100F10002BD0514902283B464FF00002009559D092
:100F20008846204601F0E0FA002860D13CE02068C5
:100F3000416981690091016841F40071016077E0C5
:100F40002068016821F480610160F0E7016821F404
:100F5000806101602068016841F4006101602068DF
:100F600041698069009063E06FE02A463946204677
:100F700001F039FB98BB20680069616A08704EE097
:100F80002068016841F40071016020680069616AAD
:100F90000870606A401C6062218D491E2185618D48
:100FA000491E6185216838E02068016821F480616C
:100FB000016020680069616A0870606A401C6062B4
:100FC000208D401E2085608D401E60853B4600229E
:100FD00041460095204601F087FA00B9D0E706E0C7
:100FE000FFE72A463946204601F0FDFA18B10120F4
:100FF00007B0BDE8F08F20680069616A0870606A18
:10100000401C6062218D491E2185618D491E6185CC
:1010100021684A69D24352070AD409690170606A9B
:10102000401C6062208D401E2085608D401E6085C2
:10103000208D00287FF468AF202084F83D0084F8DC
:101040003E6084F83C600020D2E70220D0E7000038
:10105000020010000000FFFF040001002DE9FF4F17
:1010600083B09A46DDE9119793460446DDF8408047
:10107000FFF72EFE054694F83D0020287FD1192366
:10108000012240492046009501F02EFA002876D131
:1010900094F83C00012872D0012084F83C002068BC
:1010A0000168C90703D1016841F0010101602068AE
:1010B000016821F400610160212084F83D00402096
:1010C00084F83E0000262664C4F82480A4F82A9000
:1010D000608D20852C48E062CDE9007553465A4664
:1010E0002046049901F086F970B930E02A46394665
:1010F000204601F0ABFA58B1206C042804D12068D6
:10110000016841F400710160012007B0BDE8F08F73
:10111000606A216800780861606A401C6062218D05
:10112000491E89B22185628D521E628522685369EB
:10113000DB435B070BD469B100781061606A401C27
:101140006062208D401E2085608D401E6085208D50
:101150000028CBD12A463946204601F09FF90028C5
:10116000CAD154F83D0B016841F4007101602020A0
:1011700004F81E09E67766770020C6E7FFE702203D
:10118000C3E70000020010000000FFFF10B586B0AA
:10119000044614216846FFF74BF81449206888423A
:1011A00021D11348016841F00201016000686946DD
:1011B00000F0020005904FF4407000901220019062
:1011C0000120029003200390042004900948FFF7B7
:1011D00091FC07481030016841F40011016000687B
:1011E00000F40010059006B010BD0000005400404F
:1011F00030380240000402400248816802781144FD
:1012000081607047A40000200B4810B5016841F4CC
:1012100000710160016841F480610160016841F47E
:1012200080710160032000F071F8002000F006F8E2
:1012300000F024F8002010BD003C024070B50D4DB8
:1012400004464FF47A712878B1FBF0F00A49096836
:10125000B1FBF0F000F043FB48B9102C07D200229C
:101260002146501E00F032F800206C6070BD012055
:1012700070BD0000A4000020B00000200B4882B028
:10128000016841F480410160006800F480400090F2
:101290000648001F016841F080510160006800F0BD
:1012A00080500090052002B000F030B84438024071
:1012B000002809DB00F01F02012191404009800055
:1012C00000F1E020C0F8001170470000F0B40E4BB0
:1012D0001B680C46C3F30223C3F10705042D00D994
:1012E0000425191D072901D2002300E0DB1E012679
:1012F00006FA05F1491E214099409E40761E16408F
:101300003143F0BC02F018BC0CED00E0064900F0DF
:10131000070208684FF6FF03184040EA0220034A1C
:1013200010430860704700000CED00E00000FA0573
:10133000BFF34F8F05480168054A01F4E06111438E
:101340000160BFF34F8F00BFFDE700000CED00E030
:101350000400FA052DE9F0470E46050065D0DFF8D8
:101360001481D8F80000F7B200F00F00B04207D2A5
:1013700088F80070D8F8000000F00F00B04254D197
:1013800028683D4C810712D5400703D5206840F4FA
:10139000E05020602878000703D5206840F46040C2
:1013A00020602068A96820F0F000084320602878B9
:1013B000C0072DD0304968680839012812D00228AA
:1013C00013D0032811D00968890700292DDA216874
:1013D00021F0030101432160FFF77AFC814641F2CD
:1013E000883A0EE009688903EFE709688901ECE7AC
:1013F000FFF76EFCA0EB0901514502D90320BDE8BF
:10140000F0872068696800F00C00B0EB810FEFD125
:10141000D8F80010404601F00F01B14207D907701B
:10142000006800F00F00B04201D00120E7E7287803
:10143000400705D52068E96820F4E05008432060A3
:101440002878000706D52068296920F4604040EA22
:10145000C100206000F038F82168084AC1F3031188
:10146000515CC8400649086006480068FFF7E6FE80
:101470000020C4E7003C02400838024018DF0008A2
:10148000B0000020A8000020044805490068096851
:10149000044AC1F38221515CC8407047B00000206B
:1014A0000838024028DF0008044805490068096838
:1014B000044AC1F34231515CC8407047B00000207B
:1014C0000838024028DF0008154810B5006810F001
:1014D0000C02144813D04110042A0FD0082A0ED150
:1014E0000F4C241F2268236802F03F025B0207D5DD
:1014F0002068C0F38810A0FB010106E0084610BD7B
:101500002168C1F38811A1FB00010023FEF758FEFA
:101510002168C1F30141491C4900B0FBF1F010BD45
:10152000083802400024F4002DE9F84F04006ED082
:101530002078DFF83C93C007A9F104054AD009F1EF
:1015400004000168C1F38101012908D00068C0F3DB
:10155000810002280AD1D9F80000400206D5286887
:10156000800337D560680028E1D033E06068B0F5CB
:10157000803F10D0B0F5A02F286810D020F4803024
:101580002860286820F4802028606068A8B1FFF7F0
:101590009FFB06460DE0286840F48030F4E740F4F5
:1015A00080202860F7E700BFFFF792FB801B6428CC
:1015B00073D828688003F7D50CE0FFF789FB06464F
:1015C00005E000BFFFF784FB801B6428F0D8286883
:1015D0008003F7D42078DFF89C8280074FF0000A60
:1015E0003ED5A348001D016811F00C0F08D000681B
:1015F000C0F3810002280BD1D9F80000400207D4C3
:101600002868800716D5E068012800D112E02BE198
:10161000E068B8B10120C8F80000FFF759FB0646A2
:1016200005E000BFFFF754FB801B0228C0D82868E4
:101630008007F7D52868216920F0F80040EAC1004A
:1016400028600DE0C8F800A0FFF742FB064604E062
:10165000FFF73EFB801B02281FD828688007F7D4BD
:101660002078000722D5824E83486169703671B1B7
:1016700001210160FFF72CFB074604E0FFF728FB80
:10168000C01B022809D830688007F7D50EE0C0F8E3
:1016900000A0FFF71DFB074605E082E0FFF718FBFF
:1016A000C01B02287DD830688007F7D42078400717
:1016B00068D5DFF8BCB100270BF13C0BDBF800006C
:1016C000C0000BD4DBF8001041F08051CBF80010C3
:1016D000DBF80000012700F080500090674E306872
:1016E000C00510D4306840F480703060FFF7F0FA25
:1016F000009005E0FFF7ECFA0099401A022850D854
:101700003068C005F6D55A4EA0686C3601280FD057
:101710000528306810D020F001003060306820F0DB
:1017200004003060A068B8B1FFF7D2FA00900FE073
:10173000306840F00100F4E740F004003060F7E763
:10174000FFF7C6FA0099411A41F28830814266D803
:1017500030688007F4D50EE0FFF7BAFA009007E092
:10176000FFF7B6FA0099411A41F28830814256D803
:1017700030688007F4D42FB1DBF8001021F08051DD
:10178000CBF80010A069C8B33949091D0968C1F335
:10179000810102294AD00228504607D0C8F86000CB
:1017A00000E03CE0FFF794FA04463BE04746C8F807
:1017B0006000FFF78DFA064605E000BFFFF788FAE4
:1017C000801B02282BD828688001F7D4D4E90701B0
:1017D0000843A16A2A4A490802EB0141626A41EAC8
:1017E0008211084394F82C1040EA0161C9F80010F6
:1017F00001203866FFF76CFA044606E036E000BFC9
:10180000FFF766FA001B022809D828688001F7D57F
:101810002CE000BFFFF75CFA001B022802D903206E
:10182000BDE8F88F28688001F4D41FE00128F7D0C4
:10183000D9F80000E26900F48001914214D1226AD3
:1018400000F03F0191420FD147F6C071626A01403A
:10185000914209D1A26A00F44031914204D1E16A77
:1018600000F07060884201D00120D9E70020D7E75E
:101870000438024000004742800E4742007000409A
:101880000000FFFF70B515460E46040003D094F823
:10189000490010B107E0012070BD002084F8480025
:1018A000204600F01AF804F108012068FEF7F4FD64
:1018B0003146A2682068FEF719FED4E901022946E4
:1018C000236BFEF7C9FDA168206850F8212042F083
:1018D000010240F82120002070BDFFF7A9B810B523
:1018E000401EB0F1807F01D3012010BD4FF0E024F5
:1018F00060610F21601702F01FF90020A06107202E
:101900002061002010BD70477047000070B590F84E
:101910003C20012A32D0012480F83C40022280F889
:101920003D2003685A689D6822F070060A683243B9
:101930005A60134B02689A4214D0B2F1804F11D012
:10194000104B9A420ED0104B9A420BD00F4B9A423A
:1019500008D00F4B9A4205D00E4B9A4202D00E4B44
:101960009A4204D1496825F080031943916080F8B8
:101970003D40002180F83C10084670BD022070BD3B
:10198000000001400004004000080040000C00403E
:1019900000040140004001400018004010B5040060
:1019A00003D094F83D0010B107E0012010BD0020E5
:1019B00084F83C00204600F00DF8022084F83D0039
:1019C000211D206801F0E4FB012084F83D00002087
:1019D00010BD000010B586B0044614216846FEF71D
:1019E00027FC216800222E48B1F1804F26D02D4BD4
:1019F00099422DD1016841F002010160006800F0B8
:101A00000200059026481038016841F0020101608B
:101A10000068694600F00200059010200090022046
:101A2000CDE90102CDE903201F48FFF763F800224A
:101A300001211D20FFF74AFC1D201CE0016841F038
:101A400001010160006800F00100059006B010BDC2
:101A50001348164A001D914210D1016841F400312B
:101A600001600068032200F400300590114619203F
:101A7000FFF72CFC1920FFF71BFCE7E70C4A91420B
:101A8000E4D1016841F4802101600068002200F483
:101A90008020059011461A20FFF718FC1A20EAE76B
:101AA000403802400004004000040240004401406D
:101AB000004801400168CA6842F00102CA6000683B
:101AC000816801F00701062903D0016841F0010196
:101AD0000160002070470168CA6822F00102CA60F4
:101AE0000068016A41F21112114207D1016A921095
:101AF000114203D1016821F001010160002070470B
:101B000070B5044690F83C00012817D0012584F8F0
:101B10003C50022084F83D002068826822F0770261
:101B200022F47F4282600868502830D00DDC2028E3
:101B30004DD005DC98B310283BD148E0022070BDA1
:101B4000302844D0402834D139E0602828D070288B
:101B500006D0B0F5805F2CD0B0F5005F29D10AE047
:101B6000CB68D1E90121206801F083FB20688168FE
:101B700041F0770109E0CB68D1E90121206801F04B
:101B800078FB2068816841F48041816011E0CA6877
:101B90004968206801F042FC5021206807E016E007
:101BA000CA684968206801F08BFC6021206801F058
:101BB0006AFB84F83D50002084F83C0070BDCA6880
:101BC0004968206801F02AFC40212068EFE722687C
:101BD00001461046EBE7000070B501680B4800684D
:101BE000814207D10A4C0025207820B10A2805D06F
:101BF000401C207070BD4D620120FAE7486A608089
:101C00000021024800F0DCF8257070BD240300209C
:101C1000000000202DE9F041044690F83C000D46FC
:101C200001283DD0012684F83C60022084F83D0064
:101C3000AAB3042A46D02068082A55D0D5E900273F
:101C4000E968036A23F480530362D0F81CC0036A76
:101C50002CF4407C4CEA07274FF6FF7C27F47047B2
:101C60000CEA013139434FF4204723F4204307EABB
:101C700002321A43C16102622068C16921F44061E5
:101C8000C1612068C169AA6841EA0221C0F81C103C
:101C900084F83D60002084F83C00BDE8F08101E05C
:101CA0000220FAE7D5E90012EB68206801F0C8FBD2
:101CB0002068816921F00C01816120688169AA682E
:101CC00011430FE0D5E90012EB68206801F00AFC2F
:101CD0002068816921F44061816120688169AA6876
:101CE00041EA02218161D3E7D5E9002C2F7B016A0B
:101CF00021F480710162C169036A21F0030141EAA4
:101D00000C0121F0F00C39074FF420674CEA116107
:101D100023F4206307EA02221A43C16102622068A9
:101D2000C16921F00C01C1612068C169AA68114331
:101D3000ACE710B5040003D094F83D0010B107E003
:101D4000012010BD002084F83C00204600F00CF873
:101D5000022084F83D00211D206801F019FA0120BD
:101D600084F83D00002010BD704710B5026804469D
:101D700031B1042908D008291AD00C2908D11BE058
:101D8000D06840F0020002E0D06840F00400D0606B
:101D90000122206801F060FA2068816801F00701E3
:101DA000062903D0016841F001010160002010BD47
:101DB000D06840F00800EAE7D06840F01000E6E79D
:101DC00010B50268044631B1042908D008291ED094
:101DD0000C2908D11FE0D06820F0020002E0D06892
:101DE00020F00400D0600022206801F035FA20685D
:101DF000016A41F21112114207D1016A9210114297
:101E000003D1016821F001010160002010BDD068FC
:101E100020F00800E6E7D06820F01000E2E770B597
:101E20000446006801694FF00005C943890715D4CD
:101E3000C168C943890711D4E91E016101202077D7
:101E4000206880698007204602D0FFF7C5FE04E0C5
:101E500000F0C0F8204600F042F9257720680169BB
:101E6000C943490717D4C168C943490713D46FF060
:101E700004010161022020772068806910F4407F0E
:101E8000204602D0FFF7A8FE04E000F0A3F82046A9
:101E900000F025F9257720680169C943090716D4A0
:101EA000C168C943090712D46FF008010161042019
:101EB00020772068C0698007204602D0FFF78CFE9B
:101EC00004E000F087F8204600F009F92577206843
:101ED0000169C943C90617D4C168C943C90613D4E7
:101EE0006FF010010161082020772068C06910F4AC
:101EF000407F204602D0FFF76FFE04E000F06AF852
:101F0000204600F0ECF8257720680169C943C9072D
:101F100008D1C168C943C90704D1891E016120469F
:101F200000F0DEF820680169C943090609D4C168D8
:101F3000C943090605D46FF0800101612046FFF70F
:101F4000E2FC20680169C943490609D4C168C94354
:101F5000490605D46FF040010161204600F0FAF80F
:101F600020680169C94389060BD4C168C943890641
:101F700007D46FF0200101612046BDE87040FFF7F3
:101F8000C3BC70BD10B586B0044614216846FEF788
:101F90004FF92068B0F1804F15D10C48002102683C
:101FA00042F001020260006800F001000590262066
:101FB00000900220CDE901010120CDE9031069461E
:101FC0000348FEF797FD06B010BD00003038024010
:101FD00000000240704770B5044690F83C000D4682
:101FE00001280DD0012684F83C60022084F83D00D1
:101FF00042B1042A18D0082A2AD00C2A4DD139E03F
:10200000022070BD206801F047F92068816941F025
:10201000080181612068816921F0040181612068E3
:1020200081692A69114311E0206801F065F920688F
:10203000816941F4006181612068816921F48061D6
:102040008161206881692A6941EA0221816124E075
:10205000206801F087F92068C16941F00801C16179
:102060002068C16921F00401C1612068C1692A6941
:10207000114311E0206801F0A9F92068C16941F419
:102080000061C1612068C16921F48061C16120687B
:10209000C1692A6941EA0221C16184F83D600020DA
:1020A00084F83C0070BD10B5040003D094F83D00E6
:1020B00010B107E0012010BD002084F83C0020464C
:1020C00000F00CF8022084F83D00211D206801F08A
:1020D0005FF8012084F83D00002010BD7047704774
:1020E00070B5174900680968884206D1BDE870409C
:1020F0004FF480611348FEF7DEBD11494031096895
:1021000088421BD110490878421E0A7016D202205C
:10211000FEF7ECF80D4D0E4C4FF4877601F01AFCEB
:102120000128FBD128881F38B328F7D22088C82877
:10213000F4D9B042F2D2FFF7FBF8EFE770BD000030
:102140006403002000140240A00000204A00002088
:102150004C000020704770B5040004D094F839009A
:10216000002510B106E0012070BD84F838502046EB
:1021700000F022F8242084F839002068C16821F496
:102180000051C160204601F031FC2068016921F452
:10219000904101612068416921F02A014161206874
:1021A000C16841F40051C160E563202084F8390022
:1021B00084F83A00002070BD2DE9F04186B0064653
:1021C00014216846FEF734F82C493068884252D111
:1021D0002B480024016841F010010160006800F004
:1021E0001000059026481438016841F00101016093
:1021F0000068694600F0010005904FF4C06000904F
:102200000220CDE9010403200390072004901D481B
:10221000FEF770FC1D4D1C484FF000672860C5E9B3
:1022200001744FF48068C5E9034880156C61C5E905
:1022300006402C6228466C62FEF77EFB08B1FEF772
:1022400009F97563AE63114D0F4860357830E5E8E4
:1022500002074020A5E811010C4845F814496030F8
:10226000AC61EC612C626C62FEF766FB08B1FEF7B4
:10227000F1F83563AE6306B0BDE8F08100100140AF
:102280004438024000000240406402402404002020
:10229000FEE7000010B50B4910B101280BD104E096
:1022A000FEF746F938B16E2003E0FEF741F910B9A8
:1022B000CD2009684863BDE810404FF4FA7001F082
:1022C00021BE0000E402002001684A69D2435205A1
:1022D0000FD46FF480624A61002140F8301F202241
:1022E00042738173026942F00402026101730120AA
:1022F00070470020704700002DE9F84F0446006841
:1023000089460B9D01689846174641F4806101603B
:102310002068016841F48071016000954FF0011B55
:102320000022594620460A9B00F0DEF84FF4007A5E
:1023300040B120680068C00501D5C4F840A0032062
:10234000BDE8F88F216809F0FE0008612B46284996
:1023500020460A9A00F0FCF8F0BB206841698069C9
:1023600000902A4620460A9900F070F940B1206C8E
:1023700004283AD12068016841F40071016034E01A
:10238000FEB2B8F1010F09D02168380A08612A4667
:1023900020460A9900F05AF90028E8D12068066121
:1023A0002A4620460A9900F051F90028DFD120681A
:1023B000016841F480710160009500225946204671
:1023C0000A9B00F091F80028B3D1216809F0FF00C2
:1023D00040F00100086100E007E02B460449204678
:1023E0000A9A00F0B5F80028AAD00120A8E700005A
:1023F000020001002DE9F843044600680D46DDE9BE
:10240000089701689846164641F4807101604B4672
:1024100000224FF001112046009700F065F848B106
:1024200020680068C00502D54FF4007020640320C6
:10243000BDE8F883216805F0FE0008613B464A4686
:102440001549204600F084F888B920684169806900
:1024500000903A464946204600F0F8F848B1206C12
:10246000042804D12068016841F400710160012052
:10247000DEE7F5B2B8F1010F09D02168300A086132
:102480003A464946204600F0E1F80028E7D12068A6
:1024900005610020CCE700000200010070B516467F
:1024A0000D4604460DE02046FFF70EFF08B101205F
:1024B00070BD681C05D0FEF70BFC801BA84207D836
:1024C00035B120684069C0434007ECD4002070BD9E
:1024D000002044F8300F20216173A073216941F07E
:1024E000200121612073E2E72DE9F0471E46904666
:1024F0000D460446C1F30747DDF8209008E0701C44
:1025000006D0FEF7E5FBA0EB0900B0420FD876B18C
:102510002068012F18D0806925EA00000004000C13
:1025200014D000214145EAD00020BDE8F08700200A
:1025300044F8300F20216173A073216941F020011C
:10254000216120730120F0E74069E5E70121E9E717
:102550002DE9F0479A4691460E46044600254FF075
:102560002008C1F3074725E020684069C0434005C3
:1025700014D42068016841F40071016021686FF48F
:1025800080604861256384F83D8084F83E50206C6B
:1025900040F00400206484F83C501FE0B9F1FF3F94
:1025A00008D0FEF795FBA0EB0A0149450CD8B9F11C
:1025B000000F09D02068012F13D0806926EA00009F
:1025C0000004000C0BD0CFE744F8305F84F80D8096
:1025D000A573206940F02000206125730120BDE82B
:1025E000F0874069EAE72DE9F041002590460E4664
:1025F0000446202717E04069C043C0060CD454F8B5
:10260000301B6FF01000486144F810596777A577C8
:10261000206A2062257717E0FEF75AFBA0EB08003E
:10262000B04208D83EB120684169C9434906E2D4A6
:102630000020BDE8F08144F8305F6773A57320691E
:1026400040F02000206125730120F2E770B51646A6
:102650000D4604460DE02046FFF736FE08B1012086
:1026600070BD681C05D0FEF733FB801BA84207D85D
:1026700035B120684069C0430006ECD4002070BD2D
:10268000002044F8300F20216173A073216941F0CC
:10269000200121612073E2E708B5002200904FF489
:1026A000A073F021104600F001F808BD30B501FB21
:1026B00003F4039D00F0C6F84FF0D8402C21A0F899
:1026C0007E10002C04D000BFA0F88050641EFBD107
:1026D00030BD00002DE9F0414FF0D844CF2024F860
:1026E0007E0F00206080C122628030216180ED2356
:1026F0002380642363800323638012236380812308
:102700006380E823238085236380102363807A25F8
:102710006580CB252580392565802C2565806080E6
:102720003425658002256580F72525802025658074
:10273000EA25258060806080C02525801B25658076
:10274000228001226280C525258061806180C721A9
:102750002180B721618036212180C82161803A2102
:10276000218055216180B121218060801A21618002
:10277000B62121800A266680A2216180F221218073
:102780006080262121806280E02121800F216180EC
:102790002A25658028276780082767804FF00E0C60
:1027A000A4F802C0678054276780A9276780432761
:1027B0006780668061806080608060806080E126E4
:1027C000268060801526668017266680072666802C
:1027D00011266680062767802B2767804FF0560CEE
:1027E000A4F802C04FF03C0CA4F802C04FF0050C56
:1027F000A4F802C0638061803F23638063806180AE
:102800002780608060806280638025806080608037
:102810006080EF20608026807820FEF7F7F829207E
:10282000208006484088FFF737FF0122D103044883
:10283000FEF748FABDE8F04100F048BF4400002030
:102840000004024030B50144491E8CB29918491E5B
:102850008BB24FF0D8412A2521F87E5F050A4D80C2
:10286000C0B24880200A4880E0B248802B2008800F
:10287000100A4880D0B24880180A4880D8B24880F0
:1028800030BD0000F8B5402A16D0302A13D1234CB1
:1028900003EBC302302504EB02141826A4F5905470
:1028A0001F4F203B5E2B0FD37A8800920A462B469F
:1028B0003146FFF7FBFEF8BD1A4A402502EB032420
:1028C0002026A4F50054EBE70A462B463146FFF7D5
:1028D000B9FF4FF0D8422C20A2F87E00B7F802C012
:1028E000BF8817E0F30811E0217808205FEAC17E75
:1028F00002D0A2F8807001E0A2F880C04908401E12
:1029000010F0FF00F2D15B1EDBB2641C002BEBD198
:102910006D1EEDB2002DE5D1F8BD0000A04A000803
:1029200044000020108000082DE9F04314460E46B4
:10293000054621444FF4A070079F984681421BD85A
:102940008146002F18D005EB5400F02805D9301926
:1029500086B20025301948450ED898F80030224636
:1029600031462846FFF78EFF05EB54007F1E85B2E7
:1029700008F10108FFB2E4E7BDE8F0830D4808B5AF
:10298000016841F4800101600068002200F48000C9
:10299000009011463A20FEF799FC3A20FEF788FC99
:1029A000002211464620FEF791FCBDE80840462073
:1029B000FEF77EBC3038024000B587B01C21684667
:1029C000FDF736FC16484FF02041102201601549F2
:1029D0004160062181600021C160C0E9041281616B
:1029E000C16113020162C0E90913C162016341635D
:1029F0008163416408200F23CDE9000302AB83E823
:102A000007001120CDE90501002269460448FEF7C0
:102A100039FF002801D0FDF71DFD07B000BD000003
:102A200040020020040100A02DE9F04786B01421E7
:102A30006846FDF7FDFB57480024016841F010018E
:102A40000160016801F010010591016841F0040185
:102A50000160016801F004010591016841F0200165
:102A60000160016801F020010591016841F08001D9
:102A70000160016801F080010591016841F00101E8
:102A80000160016801F001010591016841F0020156
:102A90000160016801F002010591016841F008013F
:102AA0000160016801F008010591016841F04001F1
:102AB00001600068384F00F0400042F218050590B0
:102AC000002229463846FEF7FDF8DFF8D0800122C3
:102AD0004FF4C0614046FEF7F5F8DFF8C4900022DD
:102AE00080214846FEF7EEF8DFF8B8A04BF2010669
:102AF000002231465046FEF7E5F80022F914404620
:102B0000FEF7E0F8102000902748CDE9010469465F
:102B10002648FDF7EFFF00950125CDE901546946F0
:102B200038460394FDF7E6FF4FF460600090CDE96E
:102B30000154694640460394FDF7DCFF08208DE808
:102B4000310069464846FDF7D5FF80200090CDE969
:102B50000154694648460394FDF7CCFF0096CDE941
:102B60000154694650460394FDF7C4FF0620CDE9A1
:102B70000004694650460294FDF7BCFF002211464E
:102B80000A20FEF7A3FB0A20FEF792FB06B0BDE881
:102B9000F087000030380240000802400014024074
:102BA000000002400004024000001110001002402A
:102BB0000D4810B50B4901600C49416000214FF4EC
:102BC00080428160C0E9031241618161C16101629B
:102BD000FEF784F8002803D0BDE81040FDF73ABCAA
:102BE00010BD00000054004090020020A0860100AB
:102BF0000C4810B50A49016044F2A011416000215F
:102C000042F21072C0E90212016180218161FEF777
:102C1000C5FE002803D0BDE81040FDF71BBC10BD69
:102C200000440140640300200C4810B50A490160CB
:102C300044F2A0114160002142F21072C0E9021278
:102C4000016180218161FEF7A9FE002803D0BDE863
:102C50001040FDF7FFBB10BD00480140A403002059
:102C600010B58EB000240794089409940A940B942C
:102C70001C2168460C94FDF7DBFA27484FF0804191
:102C8000016040F24731C0E9011440F2CF71C0E960
:102C9000031480218161FEF781FE08B1FDF7DAFBA4
:102CA0004FF48050079007A91B48FEF729FF08B191
:102CB000FDF7D0FB1848FFF7F6F908B1FDF7CAFB9E
:102CC0000B940BA914480C94FEF720FE08B1FDF7F5
:102CD000C1FB6020CDE900040294002269460E4841
:102CE0000494FFF778F908B1FDF7B4FB04226946B4
:102CF0000948FFF770F908B1FDF7ACFB08226946F7
:102D00000548FFF768F908B1FDF7A4FB0248FFF793
:102D100039F90EB010BD0000E402002010B58AB0F1
:102D20000024234804940594069407940894099475
:102D30000094019402941D49039401605421C0E958
:102D400001144EF66021C0E903148461FEF726FEEB
:102D500008B1FDF77FFB4FF48050049004A914489C
:102D6000FEF7CEFE08B1FDF775FB1148FEF7E1FF57
:102D700008B1FDF76FFB089408A90D480994FEF708
:102D8000C5FD08B1FDF766FB0120CDE900400C2030
:102D9000029002200390002269460548FEF73AFFA0
:102DA000002801D0FDF756FB0AB010BD000400401A
:102DB000240300200C4810B50A4901604FF4E131AA
:102DC0004160002181600C22C160C0E90412816170
:102DD000C161FFF7C0F9002803D0BDE81040FDF73E
:102DE00039BB10BD00100140E4030020FEE70000E5
:102DF00070B52A4C2A4D4FF4C86678B1012820D00E
:102E000002284AD1002210212846FDF75BFF7000FE
:102E100000F0F0F8FDF78CFB38B32EE00022102113
:102E20002846FDF74FFF304600F0E4F8FDF780FB41
:102E300018BB2078E17821706179E17021796171A6
:102E40001AE0012210212846FDF73CFF304600F031
:102E5000D1F8FDF76DFB80B9207821792170617977
:102E60002171E1786171E07007E02078617921706B
:102E70006071E0782179E1702071FDF759FB00283D
:102E80000BD0D22000F0B6F810212846FDF713FF32
:102E9000BDE87040D22000F0ADB870BD5C000020ED
:102EA000000802407047704710B5012000F018F884
:102EB0004FF4967001F026F8002000F011F84FF45E
:102EC000FA7001F01FF805480178427802704279E3
:102ED000427082784271817010BD00005C00002059
:102EE0000749096838B1012804D1C86BA52801D168
:102EF0006920C8637047C86B6928FBD1A520F8E733
:102F0000E402002070470000104910B5020010488C
:102F1000096806D0012A08D0022A11D0032A09D153
:102F200010E09B228A63002201E07D220BE0082151
:102F3000FDF7C8FEBDE810404FF4167000F0E2BF88
:102F4000772200E066228A630122F0E7E402002093
:102F50000008024010B5194A002119A4535CE35C33
:102F6000834206D1062908D2DFE801F0090D1416C4
:102F70001B20491CC9B20629EFD3012010BD002037
:102F8000FFF788F904E00020FFF784F9FFF78CFFD2
:102F9000FFF78AFF002010BD0020FFF77BF900201B
:102FA00008E00020FFF776F9012003E00020FFF79A
:102FB00071F90220FFF71CFFEAE700005C00002027
:102FC0004655444C5242000010B504460120FFF71C
:102FD00061F9312C06D0322C06D0332C4FF0010091
:102FE00006D102E0002000E00220FFF701FF0020F0
:102FF00010BD000070B504464FF4C85003E000BF98
:10300000A4F5C854A4B28442FAD800250B4E11E0AE
:10301000012280213046FDF755FE962000F07FFF0B
:10302000002280213046FDF74DFE962000F077FF0C
:103030006D1CADB2A542EBD370BD00000000024094
:103040001E4810B502686E21516302689B2191638E
:103050000068A521C16300211848FEF786FE0421FF
:103060001648FEF782FE08211448FEF77EFE4FF454
:10307000FA7000F047FF002210211148FDF722FEF0
:10308000104C08212046FDF711FE58B940F6B83023
:10309000FFF7B0FF06E080212046FDF70CFE9620EA
:1030A00000F03DFF08212046FDF700FE0028F2D188
:1030B000BDE8104040F2F230FFF79CBFE402002070
:1030C0000008024000000240FEF796B830B593B009
:1030D00030216846FDF7ACF814210CA8FDF7A8F8DC
:1030E00019480025016841F080510160006800F036
:1030F000805011901548016841F4804101600068DA
:10310000022400F4804011900120039010200490CC
:10311000009406940820CDE90750A820CDE90904C1
:1031200004200B906846FEF7FFF90CA90F2081E8F8
:1031300031004FF4A0500F90E002109005210CA830
:10314000FEF708F913B030BD40380240007000406F
:103150000548016841F47001016003494FF00060C7
:10316000803908607047000088ED00E00148FEF7F4
:1031700056BE0000A40300200148FEF750BE000028
:10318000640300200148FEF74ABE0000240300202B
:10319000F0B50268254C264D264E274F274B4FF0A1
:1031A000804CA04209D0604507D0A84205D0B0426B
:1031B00003D0B84201D0984204D122F0700E4A6880
:1031C00042EA0E02A0421BD0604519D0A84217D097
:1031D000B04215D0B84213D0984211D0184DA84231
:1031E0000ED0184DA8420BD0174DA84208D0174D4D
:1031F000A84205D0164DA84202D0164DA84203D1D0
:1032000022F44075CA682A434D6922F080022A439D
:1032100002608A68C2620A688262A04201D0984253
:1032200001D10969016301214161F0BD0000014044
:103230000004004000080040000C00400004014071
:103240000040014000440140004801400018004097
:10325000001C00400020004010B501F01F030121B8
:10326000046A99408C430462016A9A4011430162E6
:1032700010BD10B5846842EA032224F47F440A4357
:103280002243826010BD826822F070020A4342F03D
:103290000701816070470000F0B5026A22F0010268
:1032A0000262036A42688469124E24F073050C6856
:1032B0002C4323F002058B682B430D4DA84201D00F
:1032C000B04205D123F00807CB683B4323F0040349
:1032D000A84201D0B04205D14D6922F44072154395
:1032E0008A692A4342608461496841630362F0BD90
:1032F0000000014000040140F0B5026A22F0100213
:103300000262026A436884690D6824F4E64444EA70
:1033100005248D6822F0200242EA05120F4D104E5E
:10332000A84201D0B04206D1CF6822F0800242EA22
:10333000071222F04002A84201D0B04207D14D69E5
:1033400023F4406343EA85038D6943EA85034360C0
:103350008461496881630262F0BD000000000140A1
:1033600000040140F0B5026A22F480720262026A2F
:103370004368C46922F4007224F073050C68124E8D
:103380002C438D6842EA05220E4DA84201D0B0427E
:1033900006D1CF6822F4006242EA072222F480625A
:1033A000A84201D0B04207D14D6923F4405343EA0B
:1033B00005138D6943EA05134360C4614968C1631D
:1033C0000262F0BD000001400004014030B5026A15
:1033D00022F480520262046A4268C3690D6823F4D1
:1033E000E64343EA05238D6824F4005444EA053497
:1033F000084DA84202D0084DA84204D14D6922F4DC
:10340000804242EA85124260C361496801640462F5
:1034100030BD0000000001400004014010B5036A07
:10342000046A24F001040462846924F0F00444EA8C
:10343000021423F00A020A438461026210BD0000F4
:1034400070B5046A24F0010404628469056A154EAB
:10345000B04214D0B0F1804F11D0134EB0420ED014
:10346000124EB0420BD0124EB04208D0114EB042B4
:1034700005D0114EB04202D0104EB04203D124F01C
:103480000304144301E044F001041A0724F0F0049B
:1034900044EA126225F00A0301F00A01194382612D
:1034A000016270BD000001400004004000080040BF
:1034B000000C0040000401400040014000180040A2
:1034C00010B5036A23F0100303628369046A23F4CE
:1034D000704343EA023224F0A00343EA01118261FF
:1034E000016210BD30B5046A24F0100404628469DE
:1034F000056A24F4407444EA022222F470444FF630
:10350000FF7202EA03322243A02425F0A00304EA5A
:10351000011119438261016230BD0000FEB5002037
:10352000FFF7BAF84FF6FF7415230A220121142081
:103530000094FFF7BBF80123142215210A20009400
:10354000FFF7B4F83B4D02212846FDF7AFFB0028FA
:10355000F9D101AE3046B11C00F074F800271523F4
:103560000A22012114200097FFF7A0F8012314225A
:1035700015210A200097FFF799F815234FF491724F
:103580000121DC200094FFF791F801234FF496729B
:103590001521D2200094FFF789F84FF47A70FDF7D7
:1035A00035FA02212846FDF781FB0028F9D1B11D2B
:1035B000301D00F047F8204C6088FFF76DF8BDF82B
:1035C0000400BDF808109FED1D1A401A00EE100A05
:1035D000DFED1B1AB8EEC00AC1EE000AC4ED040A02
:1035E000BDF80620BDF80A00121A00EE102AB8EE47
:1035F000C00A81EE801A00EE101AB8EE402AB3EE2F
:10360000040AF0EE401A52EE201AFCEEE10A84EDB4
:10361000051A10EE901A00EE900A6181F8EE600A29
:1036200010EE810ABCEEC00A10EE100AA08100F074
:103630005BF9FEBD00040240440000200000484346
:1036400000008C4370B505460C46D02000F09CF875
:103650002880902000F098F8208070BD10B50121DE
:103660002DED028B342000F03BF8012803D0002020
:10367000BDEC028B10BD0421282000F031F800EED3
:10368000100A9FED108A104CB8EEC00A04212C20BD
:10369000C0EE080AC4ED040A00F022F800EE100A99
:1036A00002213020B8EEC00AC0EE080AC4ED050AB7
:1036B00000F016F860810221322000F011F8A0819C
:1036C0000120D5E720BCBE4C4400002010B5FFF718
:1036D000C5FF002803D1BDE81040FFF71FBF10BD94
:1036E0002DE9FF470D460146042D4FF000001FD87D
:1036F00000244FF480784FF001090DF10C0A4E19A7
:1037000014E00702301BCDF800A0401ECDE901985F
:1037100082B20123A1210848FDF7A4FB0520FDF793
:1037200075F99DF80C00641C3844E4B2AC42E8D34F
:1037300004B0BDE8F0870000900200202DE9FF47AB
:1037400000241546884681464FF48076012715E00F
:10375000E10028FA01F08DF80C0003A8CDE900077C
:1037600009EB040082B202960123A0210548FDF76F
:1037700075FC0520FDF74AF9641CE4B2AC42E7D3BE
:10378000BDE8FF8790020020FEB5064600256C4686
:10379000304600F029F824F815006D1CEDB2052D17
:1037A000F6D300214B1CD8B20CE000BF34F8112036
:1037B00034F81050AA4203D924F8115024F81020EC
:1037C000401CC0B20528F1D3D9B20429EAD3BDF810
:1037D0000200BDF804100844BDF80610084480B289
:1037E0000321B0FBF1F0FEBD2DE9F05F0025DFF80D
:1037F000EC9006462C462A4601214846FDF762FA1F
:10380000DFF8DC804FF40067002239464046FDF7C0
:1038100059FA4FF4005B002259463248FDF752FA3C
:10382000BA464F46300601D5012200E0002251463B
:103830004046FDF747FA7006060E00220121384681
:10384000FDF740FA012000F06AFB012211463846DC
:10385000FDF738FA6D1CADB2082DE3D3062000F059
:103860005EFB002201213D463846FDF72BFA012080
:1038700000F055FB012211462846FDF723FA0120EE
:1038800000F04DFB002201212846FDF71BFA00261F
:103890004FF6FF7707EA4404002201212846FDF78E
:1038A00011FA012000F03BFB012211462846FDF7EA
:1038B00009FA04212846FDF7F9F908B1641CA4B2FD
:1038C000761CB6B2102EE5D32409012259460548CC
:1038D000FDF7F8F92046BDE8F09F00000004024023
:1038E000001402400008024010B5184C04222DEDCF
:1038F000028B282094ED040A9FED158A20EE080A19
:10390000BDEEC00A10EE101AFFF718FF94ED050A7D
:1039100004222C2020EE080ABDEEC00A10EE101A78
:10392000FFF70CFF022261893020FFF707FF022218
:10393000A1893220FFF702FFBDEC028B0121BDE817
:1039400010400A463420FFF7F9BE00004400002072
:1039500020BCBE4C10B502212048FDF7A7F9204C31
:1039600010B10020207001E0207808B1002010BDC7
:1039700001202070D020FFF707FF00EE100A6089B9
:1039800094ED041AF8EE400A00EE100AB8EE400A70
:1039900010EE810ADFED130A30EEC00ABCEEC00A59
:1039A00010EE100AE0809020FFF7EEFE00EE100A05
:1039B000A08994ED051AF8EE400A00EE100AB8EE60
:1039C000400A10EE810ADFED080A30EEC00ABCEEB4
:1039D000C00A10EE100A2081012010BD0004024030
:1039E00044000020000070430000A0432DE9F04196
:1039F000044600680169E26821F440511143016105
:103A00002169A068E269084361691143084321689C
:103A1000CA6849F20C639A430243CA60206841694C
:103A2000A26921F4407111434161E06919276425BD
:103A30003226B0F5004F354A354920684FF000086E
:103A400006D0884201D0904236D1FDF72DFD35E0F9
:103A5000884201D0904202D1FDF726FD01E0FDF73A
:103A600013FD61684A18A0FB070148EB0803FCF747
:103A7000A7FB0146B0FBF5F00201B1FBF5F06FF0DA
:103A80001803584301EB800006EBC000B0FBF5F0D3
:103A900000F0F80002EB4002B1FBF5F0584301EBF7
:103AA000800006EBC000B0FBF5F000F007002168D5
:103AB00010448860BDE8F081FDF7E6FC61688B0F7B
:103AC0008A00A0FB0701FCF77BFB0146B0FBF5F089
:103AD0006FF01802504301EB800006EB0010B0FBC2
:103AE000F5F000F0F002B1FBF5F002EB0012B1FBD3
:103AF000F5F06FF01803584301EB800006EB00105F
:103B0000B0FBF5F000F00F00D1E700000014014019
:103B100000100140FEE700000FB4054B10B503A9EB
:103B2000044A029800F028F810BC5DF814FB00006D
:103B300031410008B40000200907090E002804DB09
:103B400000F1E02080F80014704700F00F0000F151
:103B5000E02080F8141D704702E008C8121F08C159
:103B6000002AFAD170477047002001E001C1121FFE
:103B7000002AFBD1704700002DE9FF4F8BB088462B
:103B80000546002606E025280BD0DDE90D129047FA
:103B90006D1C761C28780028F5D10FB03046BDE8A2
:103BA000F08F0024A146A2460122AE4900E0044362
:103BB00015F8013F203B02FA03F00842F7D12878BC
:103BC0002A2810D06FF02F022878A0F1300109299F
:103BD00015D809EB890102EB410144F0020400EB26
:103BE00001096D1CF0E758F8041B5FEA010903D5D1
:103BF00044F40054C9F1000944F002046D1C287813
:103C00002E2817D115F8010F44F004042A280ED0ED
:103C10006FF02F022878A0F1300109290AD80AEBA9
:103C20008A0102EB410100EB010A6D1CF2E758F832
:103C300004AB6D1C28786C280FD006DC4C2817D0FC
:103C400068280DD06A2814D104E0742810D07A288E
:103C50000FD10DE044F400140AE044F4801401E0B4
:103C600044F440146978814202D104F580146D1C3B
:103C70006D1C2878692865D006DC00288DD0632863
:103C800027D0642806D15DE06E2808D073282AD09A
:103C9000752877D0DDE90D129047761CE0E0C4F37B
:103CA0000250022809D003280DD0D8F800100428AB
:103CB0000DD00E6008F10408D2E0D8F80010F21719
:103CC000C1E90062F6E7D8F800100E80F2E70E7046
:103CD000F0E718F8041B8DF8001000208DF80100A3
:103CE000EB46012003E058F804BB4FF0FF306107BA
:103CF0004FF0000701D40AE07F1C57450DDA8742D8
:103D0000FADB1BF807100029F6D106E07F1C87427A
:103D1000FCDB1BF807100029F8D1DDE90D23A9EB26
:103D200007008146214600F0B1F83044C61904E08E
:103D3000DDE90D121BF8010B90477F1EF8D22146DA
:103D4000484688E058F8040BC4F302514FF00A0BC0
:103D5000032900D100B2042900D140B2002802DAC0
:103D600040422D2102E0210505D52B218DF824109C
:103D7000012104E006E0E10710D02021F6E708AFBA
:103D8000089113E058F8040BC4F302514FF00A0BEA
:103D9000032900D180B2042900D1C0B20021EEE78E
:103DA0005946FCF75AFA303107F8011D0028F7D1BF
:103DB000ADEB070000F1200B600702D524F480343E
:103DC00001E04FF0010ADA4502DDAAEB0B0000E04A
:103DD0000020824600EB0B0108980144A9EB01008A
:103DE0000A90E00306D4DDE90D2321460A9800F08D
:103DF0004DF806444FF0000908E009A911F8090040
:103E0000DDE90D12904709F10109761C08998945F1
:103E1000F3DBE0030CD5DDE90D2321460A9800F021
:103E200035F8064404E0DDE90D1230209047761C99
:103E3000BAF10001AAF1010AF5DC05E0DDE90D1295
:103E400017F8010B9047761CBBF10001ABF1010B99
:103E5000F4DC0A982146DDE90D2300F005F806445C
:103E60006D1C97E6092801002DE9F0410446002564
:103E70001E461746880404D405E039462020B04782
:103E80006D1C641EF9D52846BDE8F0812DE9F0418E
:103E9000044600251E469046C80301D5302700E0A1
:103EA0002027880404D505E041463846B0476D1CFC
:103EB000641EF9D52846BDE8F081000010B50A78E7
:103EC0004138135C0E4A13704B780C781B5C2354FA
:103ED0004C78137823540B781B5C13708B780C7818
:103EE0001B5C23548C78137823540B781B5C137061
:103EF000CB780C781B5C2354C97812780A5410BD17
:103F00000C00002070B5054600244FF47A7603E0DB
:103F1000304600F004F8641CAC42F9D370BD70B5B3
:103F20004FF0E02400226569A8214843A169A369F4
:103F30008B42FCD002D2A1EB030102E0A5EB030609
:103F400031440A4419468242F1D370BDF8B51E4689
:103F500003460320B2FBF0F400FB1424B2FBF0F0A4
:103F600000EB0010084404EB0414234485B29CB217
:103F70000020122300902A4619462046FEF796FBA1
:103F8000304600F02FF86D1C641C00901023AAB27C
:103F9000A0B21946FEF78AFBF8BD2DE9F0410F46A5
:103FA00006280ED2DFE800F00305080B1A1C452690
:103FB00006E045261E2504E04526842501E012265C
:103FC0005125002422463B5D29463046FFF7BEFFBF
:103FD000641CE4B2092CF5D3BDE8F0817826EFE744
:103FE000AB26EDE7062815D2DFE800F00305080B45
:103FF0000E111F2070474FF6E07070474FF6FF70AC
:1040000070474FF47D4070474FF4784070474FF44D
:10401000FC6070470020704770B5064616480825BA
:10402000006900EBC6010C461448FFF747FF134830
:1040300021461430FFF742FF211D1048FFF73EFFD5
:104040000E48211D1430FFF739FF042E05DB08E070
:1040500005F00101605D00F011FD6D1EEDB2032D54
:10406000F6D8022E07DA03250021605D00F006FD78
:104070006D1EEDB2F8D270BD0C000020C000002013
:104080002DE9F14F82B0284902984FF0010951F80B
:104090002000824600F07AF9244A0299064642F846
:1040A00021005146FCF7C4F800F0DAF9029800F05C
:1040B00049F8012106F800104FF00008454629E0B4
:1040C000715D494525D12946029800F0B3FB02985D
:1040D000002400F0060B09F10100C0B20090012796
:1040E0002046FFF799FF029800F02CF8022F01D02C
:1040F000A34505DC315C19B90099315408F1010878
:104100007F1C042FECDB2046FFF786FF641C062C87
:10411000E5DB6D1C5545D3DB09F10109B8F1000F52
:10412000CAD1BDE8FE8F000024000020FC00002062
:1041300003490A685206FCD5C2B24A6070470000C3
:1041400000100140F0B5034600204F4A01218CB019
:1041500006460546A2F11404082B0BD2DFE803F053
:104160000A0C0E2432347185535C8B40491C184470
:104170000C29F9DB0CB0F0BD0021F5E75FF013016D
:1041800000EB4000535C491E18440B29F8DCF1E7B2
:10419000A35C1B0702D501FA02F300E00023521CC6
:1041A00018440C2AF4DBE5E70022F1E7A35C5B0787
:1041B00002D501FA02F300E00023521C1844082A39
:1041C000F4DBD7E70022F1E7002304AAE71897F809
:1041D0000CC0ACF10C074FEA4C7CBCF1004F06D58B
:1041E00042F8275001FA03F738446D1C02E042F808
:1041F0002670761C5B1C082BE8DB00214FEA0D03C0
:1042000052F8214002EB8404246943F82140491C00
:104210000429F5DB06E000BF53F82120009C624032
:1042200043F82120491EF7D100EB400001994000DE
:1042300000EB4100DDE90212801E8A429ADA401C3E
:1042400098E71148143800F0F5F800EBC00085013C
:10425000201D00F0EFF800EB400005EBC0040A4819
:10426000083800F0E7F8204484E70748001F00F012
:10427000E1F8044604480C3800F0DCF800EB40009C
:1042800004EBC00076E70000D4000020FCF7BCFF80
:10429000FEF71CFFFEF7C8FBFEF770FBFEF78CFB7A
:1042A000FEF786FCFEF7DCFCFEF738FDFEF782FD2C
:1042B000FEF79EFCFEF7B8FC2B48FDF7FBFBFEF774
:1042C00009FA0020FCF712F82848FCF747F8FEF737
:1042D000B7FE274D274C4FF47A774FF4877600BF0F
:1042E000FFF738FB0128FBD128881F38B328F7D205
:1042F0002088C828F4D9B042F2D20120FBF7F6FF9B
:104300003846FFF7FFFD1C491848FCF71DF998B126
:104310000220FBF7EBFF00BFFFF71CFB0128FBD1DE
:1043200028881F38B328F7D22088C828F4D9B0428B
:10433000F2D2FCF7FDFFEFE71048FDF7BBFB0E499B
:104340000D483C3100F00EFB0C48FDF7C4FB0A4958
:104350000BA03C31FFF7E0FB07483C30FCF70EF8C0
:10436000FCF7E6FFBCE700006403002062000020C9
:104370004A0000204C000020BC010020A4030020C3
:10438000616E73203D2025730D0A0000F0B50B30DF
:10439000154D20F007010024144A0FE003688B42FA
:1043A0000BD38B4205D95E1A43184768C3E90067EF
:1043B00000E04368136002C004E0021D106800289A
:1043C000ECD12046002802D1286808B10020F0BDB9
:1043D000064A07481060074A121A22F00702C0E98D
:1043E000002401202860D7E7BC000020B80000208E
:1043F000EC040020E886002070B584180320E270E9
:1044000015E000BFC0F1040391FBF3F503FB1515A4
:1044100091FBF3F115442554034605E0E55C265C69
:10442000B54201D36D1CE5545B1C042BF6DB401E2A
:10443000E8D270BD30B5034600200146C1F1040248
:1044400050430A4604E09C5C5D5CAC4200D2401CD8
:10445000521C042AF7DB491C0429EFDB30BD0000A5
:10446000054B0020014603F1140218541154401C5E
:104470001428FADB70470000C000002070B5154D0D
:104480000021154C69804FF400514E1020B10128D5
:1044900008D0022818D00BE000222046FCF712FCBE
:1044A000002201E0012210E031462046FCF70AFC20
:1044B0000520FFF727FD00210848FDF756FC1420D2
:1044C000FFF720FD688870BD00222046FCF7FAFB4C
:1044D0000122E9E70000002000040240240300203C
:1044E00070B50020FFF7CAFF06460120FFF7C6FFA0
:1044F00005460220FFF7C2FF044603462A4631461E
:1045000020A0FFF709FB41F2941140F6AC508E4217
:1045100005D9854203D9844201D2002070BD41F201
:104520008832954203D98C4201D9042070BD40F6EF
:10453000C4118E4203D98C4201D9052070BD40F2CE
:10454000DC525100964205D9854203D28C4201D2F9
:10455000022070BDB6F5AF6F06D28D4204D9B4F516
:10456000486F01D9032070BDB6F5966F07D98D420B
:1045700005D241F2CC00844201D2012070BD062058
:1045800070BD0000723D253564202020673D253533
:1045900064202020623D2535640D0A0070B50C466C
:1045A0000646012210213E48FCF78CFB0320FEF753
:1045B000ABFC4FF4C870FFF7A5FCFFF791FF20712B
:1045C0000220FEF7A1FC9620FEF714FDFFF788FFFE
:1045D00060710120FEF798FC4FF448752846FEF7FD
:1045E00009FDFFF77DFFA0700220FEF78DFC284635
:1045F000FEF700FDFFF774FF60700120FEF784FCFA
:104600002846FEF7F7FCFFF76BFF20700220FEF74D
:104610007BFC2846FEF7EEFCFFF762FFE07001200E
:10462000FEF772FC2846FEF7E5FCFFF759FFA07184
:104630000220FEF769FC2846FEF7DCFCFFF750FF7E
:10464000E0710120FEF760FC2846FEF7D3FCFFF77F
:1046500047FF20720020FEF757FC40F28A20FEF749
:10466000C9FC00250FA1605D095C10A0FFF754FA9A
:104670006D1CEDB2092DF5D30DA0FFF74DFA2146C3
:104680003046FFF78AFC0020215C062905D0401C3B
:10469000C0B20928F8D3002070BD012070BD000011
:1046A000000802404655444C524220002563000059
:1046B0000D0A000010B5044600F109010120FFF7C2
:1046C0006DFF002852D1FEF7EFFB0220FEF790FBB2
:1046D000C820FFF717FC04F12D010520FFF75EFF4E
:1046E000E8BB0120FEF784FBFEF7DEFB0020FEF7AF
:1046F0007FFBC820FFF706FC04F124010420FFF72C
:104700004DFF60BB0120FEF773FBFEF7CDFB0020E1
:10471000FEF76EFBC820FFF7F5FB21460020FFF7F0
:104720003DFFE0B90120FEF763FBFEF7BDFB002073
:10473000FEF75EFBC820FFF7E5FB04F11B01032039
:10474000FFF72CFF58B90220FEF752FBFEF7ACFB37
:104750000120FEF74DFBC820FFF7D4FB00E005E089
:1047600004F112010220FFF719FF08B1012010BD6A
:10477000FEF79AFBFEF798FB0549002000EBC0020C
:10478000224412798854401C0628F7DB002010BD13
:10479000040000202DE9F04F244E054691460F46B7
:1047A0007069FFF7CFFC0146214C706954F8202056
:1047B000515C491EA9420ADC401CFFF7C3FC716929
:1047C00004EB81014968085C401EA84202DD00201C
:1047D000BDE8F08FEDB1DFF858B005240BF1200BE8
:1047E0000BF15008B2464C451BD04BF82740012630
:1047F0002046FFF711FC48F82760022E03D0DAF8B4
:104800001400844207DB2246791C681EFFF7C2FFB2
:1048100008B10120DCE7761C042EE9DB2046FFF717
:10482000FBFB2046641EDED2D2E700000C00002015
:10483000FC0000202DE9F04300250C4607460C261D
:10484000A8460FF20019FFF70BFE3846444A182716
:10485000A2F1140108280CD2DFE800F00B040D24AB
:104860002E304A6204F00100505564106D1C0C2D6E
:10487000F8DBBDE8F0830C205FF0030194FBF1F35B
:1048800001FB134394FBF1F41354401C1428F5DB93
:10489000EFE700BF00EAC4024A5564106D1C0C2DFE
:1048A000F8DBE6E70820F5E700EA84024A556410E1
:1048B0006D1C082DF8DBDCE70420F5E7062094FBEF
:1048C000F0F200FB124394FBF0F209EB8303D007F4
:1048D00005D013F8080008F10108413801E030461E
:1048E000761C4C1952106D1C2073082DEFDBC0E7AD
:1048F00094FBF7F007FB104119480C221438FFF71E
:104900007BFD94FBF7F494FBF7F007FB1041144890
:1049100004221438FFF770FD94FBF7F100220BE03E
:1049200094FBF7F10E4808221438FFF765FD94FB5D
:10493000F7F007FB10411022BDE8F0430848143897
:10494000FFF75ABD5152535451525453515352547C
:104950005154525351535452515453520000000079
:10496000D40000202DE9F35F00252C4628462E4672
:104970003C4F01E00C2801DA022100E00321395408
:10498000401C1428F6DB2046FFF77AFB641C082C39
:10499000F9DBBA460024A1460099C84605EB45005C
:1049A000474600EB010B10E02F481BF8041040684D
:1049B000FBF749FC2C494968401A404501DD804617
:1049C000A146012181400F44641C1AF80500A04251
:1049D000EADC254C0020E1680A5C403ABA4202D089
:1049E000401C1428F8DBA1681E4A4B5D693A9854B4
:1049F0001AF8052099FBF2F302FB13904A5D19495E
:104A00006D1C5539142D5054C4DB606901F18907C0
:104A100001F1D908082822DA002500E06D1C0922DE
:104A200000212846FFF7B6FE0028F7D000204146B7
:104A30000FE000BF57F820200CA39B5C019A935510
:104A400051F820200BA3761C9B5C019A401C9355C7
:104A5000761CA842EEDB6069801C6061DAE7BDE885
:104A6000FC9F0000E80000200C0000204642524C51
:104A7000554400003031323300000000074A10B5C1
:104A80004138491C135C194402F114031B5C91FB6F
:104A9000F3F403FB1411115410BD0000D4000020E6
:104AA0000000000000000000000000000000000006
:104AB00000000000000000000000000000000000F6
:104AC00000000000000000000000000000000000E6
:104AD00000000000000000000000000000000000D6
:104AE00000000000000000000000000000000000C6
:104AF00000000000000000000000000000000000B6
:104B000000000000000000000000000000000000A5
:104B10000000000000000000000000000000000095
:104B20000000000000000000000000000000000085
:104B30000000000000000000000000000000000075
:104B40000000000000001800001C00001C00001CF9
:104B500000001C00001C00001C00001C00001C00C9
:104B6000001C0000180000180000080000080000E9
:104B70000800000800000800000800000800000805
:104B8000000008000008000008000000000000000D
:104B9000000000000000000000000000001C0000F9
:104BA0003E00003E00003E00001C0000000000002F
:104BB00000000000000000000000000000000000F5
:104BC000000000000000000000000606000F0F803B
:104BD0008F0F808F0FC0C707C0C303E0E101E0E083
:104BE0000070700030300018180008080000000045
:104BF00000000000000000000000000000000000B5
:104C000000000000000000000000000000000000A4
:104C10000000000000000000000000000000000094
:104C20000000000000000000000000000000000084
:104C30000000000000000000000000000000000074
:104C40000000000000000000000000000000000064
:104C50000000000000000000000000000000000054
:104C600000000000000000008001068001068001B5
:104C700006800002800002800002800002800002A4
:104C8000FCFF3FFCFF3FFCFF3FFCFF3FC00003C0B9
:104C90000003C00003C00003C00003C00003C00045
:104CA00003400001400001FCFF3FFCFF3FFCFF3FD1
:104CB000FCFF3F60800160800160800160800160D6
:104CC00080016080016080016080010000000000C0
:104CD00000000000000000000000000000000000D4
:104CE00000000000000000000000000000000000C4
:104CF000180000180000180000FE00809B03C01878
:104D000007E0180660180E70180E70180F70180F54
:104D1000701807F01800E01900E01B00C01F0080A9
:104D20001F00003F00007E0000FC0000F80100F8BA
:104D30000300D80700980700180F00180F70180E0E
:104D400078180E78180E78180E38180E30180630AD
:104D50001807601803C0D801007F00001800001871
:104D600000001800001800001800000000000000FB
:104D70000000000000000000000000000000000033
:104D80000000000000000000F000041801060C0301
:104D900002040203060601060601068601068600D5
:104DA00006C6000646000646000666000626000CFB
:104DB00032000C1300981100F0180F00881900CC75
:104DC0003000C43000442000666000626000626011
:104DD0000061600061608061608060608060604050
:104DE000402040C03060801920000F00000000000B
:104DF00000000000000000000000000000000000B3
:104E000000000000000000000000000000000000A2
:104E10000000000000000000800F00C01C00E0182F
:104E2000006038007038007038007038007038004A
:104E3000703800701800701C00F00C00E00E00E0EC
:104E40000600E00100E0E11FD00107D803039C0346
:104E5000038C07038C07030E0F010E0F010E9E013A
:104E60000E9C010EBC000EF8001E70001CF0403CB1
:104E7000F06178D823F08F3FE0030E0000000000BF
:104E80000000000000000000000000000000000022
:104E9000000000000000000000700000F80000F8B2
:104EA0000100F80100F00100C00100C00100C000D5
:104EB000006000007000003800000C0000000000DE
:104EC00000000000000000000000000000000000E2
:104ED00000000000000000000000000000000000D2
:104EE00000000000000000000000000000000000C2
:104EF00000000000000000000000000000000000B2
:104F000000000000000000000000000000000000A1
:104F10000000000000000000000000000000000091
:104F200000000000000000001000000800000C005D
:104F3000000600000300800100800000C000006047
:104F40000000600000300000300000300000180059
:104F5000001800001800000C00000C00000C0000FD
:104F60000C00000C00000C00000C00000C00000CF9
:104F700000000C00000C00001800001800001800D1
:104F800000100000300000300000600000600000F1
:104F9000C000008000008001000003000006000047
:104FA0000C000008000010000000000000000000DD
:104FB0000000000000000800001000003000006049
:104FC0000000C00000800100000100000300000696
:104FD00000000600000C00000C00000C000018008F
:104FE0000018000018000030000030000030000001
:104FF0003000003000003000003000003000003091
:1050000000003000003000001800001800001800F8
:10501000000800000C00000C000006000006000064
:105020000300000100800100C000006000003000AB
:105030000010000008000000000000000000000058
:105040000000000000000000000000000000000060
:105050000000000000000000000000000000000050
:1050600000000000001C00001C00001C00001C00D0
:10507000001C000C1C1C3E1C3E7E083FFC881FF0E0
:10508000C90780EB00001C00001C0080EB00F0C989
:1050900007FC881F7E083F3E1C3E0E1C38001C008B
:1050A000001C00001C00001C00001C000000000090
:1050B00000000000000000000000000000000000F0
:1050C00000000000000000000000000000000000E0
:1050D00000000000000000000000000000000000D0
:1050E00000000000000000000000000000000000C0
:1050F0000000000000180000180000180000180050
:105100000018000018000018000018000018000027
:105110001800001800FCFF3FFCFF3F0018000018BB
:105120000000180000180000180000180000180007
:10513000001800001800001800001800000000000F
:10514000000000000000000000000000000000005F
:10515000000000000000000000000000000000004F
:10516000000000000000000000000000000000003F
:10517000000000000000000000000000000000002F
:10518000000000000000000000000000000000001F
:10519000000000000000000000000000000000000F
:1051A00000000000000000000000000000000000FF
:1051B00000000000000000000000000000000000EF
:1051C000000000000000000000700000F80000F87F
:1051D0000100F80100F00100C00100C00100C000A2
:1051E000006000007000003800000C0000000000AB
:1051F00000000000000000000000000000000000AF
:10520000000000000000000000000000000000009E
:10521000000000000000000000000000000000008E
:10522000000000000000000000000000000000007E
:105230000000000000FCFF3FFCFF3F0000000000FA
:10524000000000000000000000000000000000005E
:10525000000000000000000000000000000000004E
:10526000000000000000000000000000000000003E
:10527000000000000000000000000000000000002E
:10528000000000000000000000000000000000001E
:10529000000000000000000000000000000000000E
:1052A00000000000000000000000000000000000FE
:1052B00000000000000000000000000000000000EE
:1052C00000000000000000000000000000000000DE
:1052D00000000000000000000000000000000000CE
:1052E000000000000000000000F00000F80100F8DD
:1052F0000100F80100F80100F000000000000000CB
:10530000000000000000000000000000000000009D
:10531000000000000000000000000000000020006D
:10532000003000001000001800000800000C000011
:10533000040000060000020000020000010000015D
:1053400000800000800000C00000400000600000FD
:105350002000003000001000001800000800000CC1
:10536000000004000006000002000003000001002D
:10537000000100800000800000400000400000604C
:10538000000020000030000010000018000008009D
:10539000000C0000040000000000000000000000FD
:1053A00000000000000000000000000000000000FD
:1053B0000000000000000000007E0080C301C0016A
:1053C00003C0000760000670000E30000C38001C9F
:1053D00038001C38001C1800381C00381C00381C11
:1053E00000381C00381C00381C00381C00381C0019
:1053F000381C00381C00381C003818001838001CF5
:1054000038001C38001C30000C70000E600006C014
:105410000007C0010300C301007E0000000000007F
:10542000000000000000000000000000000000007C
:10543000000000000000000000000000000000006C
:1054400000000000000000000020000030000038D4
:1054500000C03F000038000038000038000038006D
:105460000038000038000038000038000038000024
:1054700038000038000038000038000038000038DC
:105480000000380000380000380000380000380004
:1054900000380000380000380000380000380000F4
:1054A0003800003800007C00C0FF0700000000004A
:1054B00000000000000000000000000000000000EC
:1054C00000000000000000000000000000000000DC
:1054D000000000000000000000FE0080C10360002A
:1054E0000730000E30000E38001C38001C38001C3D
:1054F00078001C78001C70001C00000E00000E00DC
:10550000000700000700800300C00100E0000070F9
:1055100000003800001C00000E000007008003009F
:10552000C00100E000106000103000183800081CB6
:10553000000EFCFF0FFCFF0FFCFF0F00000000003F
:10554000000000000000000000000000000000005B
:10555000000000000000000000000000000000004B
:105560000000000000000000007E0080C1014080BB
:105570000320000730000730000E70000E70000E90
:1055800060000E00000E000006000007000003008F
:10559000800100E000003E0000E000008003000009
:1055A0000700000E00000C00001C00001C00001C86
:1055B00030001C78001C78001C78000C38000E307D
:1055C0000006600003C0C001007F00000000000072
:1055D00000000000000000000000000000000000CB
:1055E00000000000000000000000000000000000BB
:1055F000000000000000000000800100C00100C0A9
:105600000100E00100F00100D00100C80100C80164
:1056100000C40100C60100C20100C30100C1018035
:10562000C001C0C00140C00160C00120C00130C045
:105630000118C00118C0010CC001FCFF3F00C001EF
:1056400000C00100C00100C00100C00100C0010095
:10565000C00100C00100E00300FE3F0000000000A8
:10566000000000000000000000000000000000003A
:10567000000000000000000000000000000000002A
:105680000000000000000000E0FF0FE0FF0FE0FF5F
:105690000F2000002000002000002000002000005B
:1056A00030000030000030000030000030FE0030DC
:1056B000FF01B08107F0000770000E30000E0000FF
:1056C0001E00001C00001C00001C00001C30001C00
:1056D00078001C78001C78000C38000E30000E306A
:1056E0000007600003C0C101007F0000000000004F
:1056F00000000000000000000000000000000000AA
:105700000000000000000000000000000000000099
:10571000000000000000000000F801000702800106
:1057200006C0000E60000E60000E30000030000069
:105730003800003800001800001800001CFC001C95
:10574000FF039C8307DC000E7C001C3C001C3C001B
:10575000381C00381C00381C00381C00381C00386D
:1057600018003838003838001830001C70001CE071
:10577000000CC0010680830300FE00000000000052
:105780000000000000000000000000000000000019
:105790000000000000000000000000000000000009
:1057A0000000000000000000F0FF1FF0FF1FF0FFEE
:1057B0000F70000C300004180002180003080001EC
:1057C00000800100800000C0000040000060000078
:1057D00060000030000030000018000018000018C1
:1057E00000001C00000C00000E00000E00000E0067
:1057F000000E00000F00000F00000F00000F00005F
:105800000F00000F00000F00000600000000000065
:105810000000000000000000000000000000000088
:105820000000000000000000000000000000000078
:10583000000000000000000000FE00C08103E00046
:105840000770000E70000E38001C38001C38001C59
:1058500038001C78001C78000CF0000EE00307E014
:10586000870380DF01007F00C0FD00E0F00370C00F
:105870000730800738000F38000E1C001E1C001C6B
:105880001C001C1C001C1C001C18000C38000E30D6
:105890000006600003C08101007F000000000000DE
:1058A00000000000000000000000000000000000F8
:1058B00000000000000000000000000000000000E8
:1058C0000000000000000000003F00C0C100608038
:1058D0000170000338000638000618000E1C000C8A
:1058E0001C000C1C001C1C001C1C001C1C001C1C94
:1058F000001C3C001E38001F38001D78801DF0E1A0
:105900001CE07F1C801F1C00000E00000E00000E1B
:1059100000000E0000060000077000037080037096
:10592000C00170E000607000801F000000000000F7
:105930000000000000000000000000000000000067
:105940000000000000000000000000000000000057
:105950000000000000000000000000000000000047
:105960000000000000000000000000000000000037
:10597000000000000000001C00003E00003E00008F
:105980003E00001C000000000000000000000000BD
:105990000000000000000000000000000000000007
:1059A000000000000000000000000000001C0000DB
:1059B0003E00003E00003E00001C00000000000011
:1059C00000000000000000000000000000000000D7
:1059D00000000000000000000000000000000000C7
:1059E00000000000000000000000000000000000B7
:1059F00000000000000000000000000000000000A7
:105A0000000000000000000000000000003C00005A
:105A10003C00003C00003C000000000000000000D2
:105A20000000000000000000000000000000000076
:105A30000000000000000000000000000000000066
:105A40003C00003C00003C00003C0000300000181E
:105A500000001800000800000C000000000000001A
:105A60000000000000000000000000000000000036
:105A7000000000000000000000000800001C000002
:105A80000E00000700800300C0010060000030002D
:105A9000001800000C00000600000300800100C098
:105AA00000006000003000001800003000006000BE
:105AB00000C00000800100000300000600000C0090
:105AC00000180000300000600000C00100800300EA
:105AD000000700000E00001C00000800000000008D
